:020000040000FA
:10000000503300207D0300008503000087030000BB
:10001000890300008B0300008D0300000000000036
:100020000000000000000000000000008F0300003E
:10003000910300000000000093030000D975000048
:1000400097030000990300009B0300009D0300003C
:100050009F030000B1790000017A0000A5030000B1
:1000600001480000A9030000AB030000AD0300003D
:10007000AF030000B1030000B3030000B5030000AC
:10008000B7030000B9030000BB030000BD0300007C
:1000900089760000C1030000C3030000C50300000F
:1000A000C7030000C9030000CB030000CD0300001C
:1000B000CF030000D1030000D3030000D5030000EC
:1000C000D7030000297A0000DB030000DD030000F5
:1000D000DF030000E1030000E3030000E50300008C
:1000E000E7030000E903000000000000EB0300004C
:1000F000ED030000EF030000F1030000F303000034
:10010000F5030000F7030000F9030000FB03000003
:100110000000000000000000FD030000FF030000DD
:10012000010400000304000005040000A57A00009B
:10013000090400000B0400000D040000DD7A00003B
:1001400000000000000000000000000000000000AF
:10015000110400001304000015040000170400003F
:10016000000000000000000000000000000000008F
:10017000000000000000000000000000000000007F
:10018000000000000000000000000000000000006F
:10019000000000000000000000000000000000005F
:1001A000000000000000000000000000000000004F
:1001B000190400001B0400001D0400001F040000BF
:1001C0002104000023040000D582000055830000B4
:1001D000D9830000598400002D0400002F04000082
:1001E000310400003304000035040000000000006A
:1001F0000000000037040000390400003B04000048
:100200003D0400003F04000000000000000000006A
:1002100041040000430400004504000047040000BE
:10022000490400004B0400004D0400004F0400008E
:10023000510400005304000055040000570400005E
:10024000590400005B0400005D0400005F0400002E
:1002500061040000630400006504000067040000FE
:10026000690400006B0400006D04000000F002F857
:1002700000F05CF80AA090E8000C82448344AAF1E4
:100280000107DA4501D100F051F8AFF2090EBAE8E2
:100290000F0013F0010F18BFFB1A43F001031847BA
:1002A00078C0000098C000000A444FF0000C10F81D
:1002B000013B13F0070408BF10F8014B1D1108BFE4
:1002C00010F8015B641E05D010F8016B641E01F884
:1002D000016BF9D113F0080F1EBF10F8014BAD1CD4
:1002E0000C1B09D16D1E58BF01F801CBFAD505E0F2
:1002F00014F8016B01F8016B6D1EF9D59142D6D34C
:10030000704700000023002400250026103A28BF73
:1003100078C1FBD8520728BF30C148BF0B60704777
:100320001FB50BF03EFD1FBD10B510BD00F0F0F87D
:100330001146FFF7F5FF0AF06DFB00F00EF903B46C
:10034000FFF7F2FF03BC08F063FB00000138FDD1AA
:1003500070470000EFF3108072B67047EFF3108023
:100360007047EFF3108062B6704730BF704780F37C
:1003700011887047EFF31180704700003F488047B5
:100380003F480047FEE7FEE7FEE7FEE7FEE7FEE741
:10039000FEE7FEE7FEE7FEE7FEE7FEE7FEE7FEE735
:1003A000FEE7FEE7FEE7FEE7FEE7FEE7FEE7FEE725
:1003B000FEE7FEE7FEE7FEE7FEE7FEE7FEE7FEE715
:1003C000FEE7FEE7FEE7FEE7FEE7FEE7FEE7FEE705
:1003D000FEE7FEE7FEE7FEE7FEE7FEE7FEE7FEE7F5
:1003E000FEE7FEE7FEE7FEE7FEE7FEE7FEE7FEE7E5
:1003F000FEE7FEE7FEE7FEE7FEE7FEE7FEE7FEE7D5
:10040000FEE7FEE7FEE7FEE7FEE7FEE7FEE7FEE7C4
:10041000FEE7FEE7FEE7FEE7FEE7FEE7FEE7FEE7B4
:10042000FEE7FEE7FEE7FEE7FEE7FEE7FEE7FEE7A4
:10043000FEE7FEE7FEE7FEE7FEE7FEE7FEE7FEE794
:10044000FEE7FEE7FEE7FEE7FEE7FEE7FEE7FEE784
:10045000FEE7FEE7FEE7FEE7FEE7FEE7FEE7FEE774
:10046000FEE7FEE7FEE7FEE7FEE7FEE7FEE7000049
:1004700004480549034A054B70470000F175000028
:100480006D02000050310020503300205031002018
:1004900070474FF0000200B5134694469646203947
:1004A00022BFA0E80C50A0E80C50B1F12001BFF42D
:1004B000F7AF090728BFA0E80C5048BF0CC05DF893
:1004C00004EB890028BF40F8042B08BF704748BFE1
:1004D00020F8022B11F0804F18BF00F8012B704755
:1004E000704770477047704710B500F009F8006812
:1004F00010BD10B5044600F003F8046010BD000004
:1005000000487047EC30002000487047EC30002075
:100510007546FFF7F9FFAE4605006946534620F0E1
:100520000700854618B020B5FFF7A2FFBDE82040C0
:100530004FF000064FF000074FF000084FF0000B9F
:1005400021F00701AC46ACE8C009ACE8C009ACE852
:10055000C009ACE8C0098D4670470446AFF300807F
:100560002046FFF7ECFE0000C048007800287DD050
:10057000BF480078BE494978884202D10120BC4971
:100580004870BC48B0F90000002803DDB948B0F954
:10059000000003E0B748B0F900004042B0F5C87F62
:1005A00065DAB448B0F90200002803DDB148B0F9BB
:1005B000020003E0AF48B0F902004042B0F5C87F46
:1005C000EEDAAC48B0F90400002803DDA948B0F920
:1005D000040003E0A748B0F904004042B0F5C87F2A
:1005E000DEDAA448B0F9000000EE100AB8EEC00A46
:1005F000A148D0ED000AB4EEE00AF1EE10FA07DDF2
:100600009C48B0F9000000EE100AB8EEC00A02E003
:10061000994890ED000A984880ED000A9548B0F995
:10062000020000EE100AB8EEC00A9348D0ED010AAD
:10063000B4EEE00AF1EE10FA07DD8E48B0F90200E0
:1006400000EE100AB8EEC00A02E08B4890ED010AF5
:10065000894880ED010A8748B0F9040000EE100ACD
:10066000B8EEC00A8448D0ED020A01E0F8E0EDE0FF
:10067000B4EEE00AF1EE10FA07DD7E48B0F90400AE
:1006800000EE100AB8EEC00A02E07B4890ED020AC4
:10069000794880ED020A7748B0F9000000EE100AB0
:1006A000B8EEC00A7548D0ED000AB4EEE00AF1EEEB
:1006B00010FA07D26F48B0F9000000EE100AB8EE49
:1006C000C00A02E06D4890ED000A6C4880ED000A17
:1006D0006848B0F9020000EE100AB8EEC00A674898
:1006E000D0ED010AB4EEE00AF1EE10FA07D261484B
:1006F000B0F9020000EE100AB8EEC00A02E05F484E
:1007000090ED010A5D4880ED010A5A48B0F90400F5
:1007100000EE100AB8EEC00A5848D0ED020AB4EE56
:10072000E00AF1EE10FA07D25248B0F9040000EEE8
:10073000100AB8EEC00A02E0504890ED020A4F4895
:1007400080ED020A4E480088B0F5FA6F7ED14A4823
:1007500090ED000A4948D0ED000A30EE200AF6EE8E
:10076000000A20EE200ABDEEC00A10EE100A00B208
:1007700000EE100AB8EEC00A3E4880ED020A3E487C
:1007800090ED010A3D48D0ED010A30EE200AF6EE68
:10079000000A20EE200ABDEEC00A10EE100A00B2D8
:1007A00000EE100AB8EEC00A324880ED030A324863
:1007B00090ED020A3148D0ED020A30EE200AF6EE42
:1007C000000A20EE200ABDEEC00A10EE100A00B2A8
:1007D00000EE100AB8EEC00A264880ED040A26484A
:1007E00090ED000A2548D0ED000A30EE600A254859
:1007F00080ED000A204890ED010A2048D0ED010A62
:1008000030EE600A1F4880ED010A1B4890ED020A95
:100810001A48D0ED020A30EE600A1A4880ED020A4A
:1008200090ED000AD0ED010A80EE201A114880ED0B
:10083000061A144890ED000AD0ED020A80EE201A44
:100840000C4880ED071A00200D4900E002E0088006
:10085000064908700A480088401C0949088003E0DE
:100860000348007802494870704700009104002056
:10087000B20400206404002094040020A00400209E
:10088000AC0400203409002010B500F001F810BDC0
:100890001FB501236A4603210C2004F017F8012339
:1008A0000DF1010204210C2004F010F89DF8000065
:1008B0009DF8011040EA0120404200B2ADF80A0064
:1008C00001230DF1020205210C2003F0FFFF01239B
:1008D0000DF1030206210C2003F0F8FF9DF8020041
:1008E0009DF8031040EA0120404200B2ADF8080034
:1008F000012301AA07210C2003F0E8FF01230DF1D9
:10090000050208210C2003F0E1FF9DF804009DF88A
:10091000051040EA012000B2ADF80C00BDF8080057
:100920001A490880BDF80A004880BDF80C0088808C
:100930000846B0F9000000EE100AB8EEC00A0846FA
:10094000D0ED020A30EE600A80ED080AB0F902002C
:1009500000EE100AB8EEC00A0846D0ED030A30EEE9
:10096000600A80ED090AB0F9040000EE100AB8EE42
:10097000C00A0846D0ED040A30EE600A80ED0A0A8B
:10098000FFF7F2FD00F004F81FBD00006404002032
:1009900008B50120009001236A460A210C2004F0CA
:1009A00037F808B1012008BD0020FCE710B586B07B
:1009B000FA480078FA49097890FBF1F201FB12013C
:1009C000F7480078401E814202D10120F549887025
:1009D000F2480078F449097890FBF1F201FB12012A
:1009E000F1480078401E814202D10120ED49C870D3
:1009F000EA480078ED49097890FBF1F201FB120119
:100A0000EA480078801E814202D10120E5498873BE
:100A1000E2480078E649097890FBF1F201FB120107
:100A2000E3480078401E814202D10120DD49487030
:100A3000DA480078DF49097890FBF1F201FB1201F6
:100A4000DC480078401E814202D10120D5498872DD
:100A5000D2480078D849097890FBF1F201FB1201E5
:100A6000D5480078801E814202D10120CD4908730B
:100A7000CA480078D149097890FBF1F201FB1201D4
:100A8000CE480078801E814202D10120C5494873BA
:100A9000C2480078CA49097890FBF1F201FB1201C3
:100AA000C7480078C01E814202D10120BD49C873E9
:100AB000BA480078C349097890FBF1F201FB1201B2
:100AC000C0480078C01E814204D1B648007C401C5A
:100AD000B4490874B1480078401CC0B2AF490870EE
:100AE000C82801DD00200870AE48007860B1002001
:100AF000AC4908704FF4C87364224FF496710090AB
:100B0000042001F02FFE0FE2A6484078E0B100205B
:100B1000A4494870AC4991ED000ADFEDAC0A20EE23
:100B2000200ABDEEC00A10EE100AA9490A78002179
:100B3000A84B93ED001AA84BD3ED000AA74B93EDF9
:100B4000000A01F0EBFCEFE19648C07B60B10020A9
:100B50009449C873A24890ED001ADFEDA20A9FEDF8
:100B6000A10A01F05DFCDFE18E48807B28B1002006
:100B70008C49887301F07EFDD6E18A488078E0B325
:100B8000002088498870984890ED020ABDEEC00A9E
:100B900010EE100A01B2944890ED000ABDEEC00AB2
:100BA00010EE100A00B2914A127800EE102AB8EE48
:100BB000400ABDEEC00A10EE102A12B28C4B93ED23
:100BC000090ABDEEC00A10EE103A1BB2CDE901329F
:100BD000CDE90301864890ED080ABDEEC00A10EE8B
:100BE000100A00B2824C009094ED070ABDEEC00AD4
:100BF00010EE104A23B27E4C00E019E094ED060A94
:100C0000BDEEC00A10EE104A22B2794C94ED050AEE
:100C1000BDEEC00A10EE104A21B2754C94ED040AE4
:100C2000BDEEC00A10EE104A20B201F0DBFA7BE103
:100C30005C48C07870B100205A49C8706D4800887F
:100C40000A2190FBF1F084B221466B48006801F064
:100C500097FB69E15348807AA8B300205149887214
:100C600040F2DC526548C08900F2DC5080B2634932
:100C7000898901F2DC5189B2CDE903025F4805920E
:100C80000291408900F2DC5080B25C49098901F28E
:100C9000DC5189B2594CCDE90010648804F2DC546F
:100CA000A3B2564C248804F2DC54A2B2534CE4881C
:100CB00004F2DC54A1B2514CA48804F2DC54A0B27A
:100CC00001F0DEF930E1FFE73648007B48B3002051
:100CD00034490873009001900290494C039094EDC0
:100CE000030ABCEEC00A10EE104AA3B2444C94EDC5
:100CF000020ABCEEC00A10EE104AA2B2404C94EDBB
:100D0000010ABCEEC00A10EE104AA1B23C4C94EDB0
:100D1000000ABCEEC00A10EE104AA0B200F0B2FF0A
:100D200002E12048407B40B100201E4948734FF447
:100D3000E4717B2001F05AF9F6E01A48007958B3C3
:100D40000020184908712F48D0ED1E4AB0EE644AC1
:100D5000D0ED1F4AF0EE643AD0ED1D4AB0EE643A91
:100D6000D0ED1A4AF0EE642AD0ED1B4AB0EE642AA8
:100D7000D0ED194AF0EE641AD0ED164AB0EE641ABE
:100D8000D0ED174AF0EE640AD0ED154AB0EE640AD1
:100D9000012001F00DF8C7E036E000002606002033
:100DA00027060020403000202806002029060020C9
:100DB0002A0600202B0600202C0600202D060020ED
:100DC0002E0600202F060020E0050020CDCCCC3DD3
:100DD0003405002054050020500500204C0500205B
:100DE000D005002000000000742D002042060020E5
:100DF000B4070020C0040020C804002050090020CF
:100E0000C02D0020EC2B00204848407958B300202A
:100E1000464948714648D0ED1E4AB0EE644AD0EDCE
:100E20001F4AF0EE643AD0ED1D4AB0EE643AD0EDC0
:100E30001A4AF0EE642AD0ED1B4AB0EE642AD0EDD7
:100E4000194AF0EE641AD0ED164AB0EE641AD0EDED
:100E5000174AF0EE640AD0ED154AB0EE640A02209B
:100E600000F0A6FF60E03148807958B300202F4998
:100E700088713048D0ED214AB0EE644AD0ED224A64
:100E8000F0EE643AD0ED204AB0EE643AD0ED1D4A5F
:100E9000F0EE642AD0ED1E4AB0EE642AD0ED1C4A72
:100EA000F0EE641AD0ED194AB0EE641AD0ED1A4A89
:100EB000F0EE640AD0ED184AB0EE640A032000F0A8
:100EC00077FF31E01948C079F8B100201749C8719F
:100ED0001848D0ED251AB0EE611AD0ED261AF0EEC2
:100EE000610AD0ED241AB0EE610A1FED424A5FEDAF
:100EF000433A1FED443A5FED452A1FED462A5FED68
:100F0000471A042000F054FF0EE00848007C022835
:100F10000AD10020054908741FED4E0A00231A4625
:100F20001946184600F018FE06B010BD40300020EB
:100F3000B02C0020400A002003B589B000200690A4
:100F400007900AE007990998415C06980844C0B2E6
:100F500006900798401CC0B207900A98401E079957
:100F60008842EFDCDDE90901084410F8011C06980D
:100F7000814201D00BB000BD09980078AA2803D1A6
:100F800009984078AF2800D0F4E7099880780128C4
:100F900028D109980079012802D1FE49087021E082
:100FA00009980079022803D10120FA49487019E014
:100FB00009980079032804D10120F6490870487087
:100FC00010E009980079042803D10120F249087043
:100FD00008E009980079212803DB09980079262880
:100FE00000DD00BF09988078022817D109980079A0
:100FF000012806D1E949087148718871C8710872E1
:10100000487209980079A02802D10120E3490870AC
:1010100009980079A12801D105F0FEFB0998807894
:10102000032846D1DE480078012802D0022002F0D1
:101030002BFF099800790999497941EA0020D9499B
:101040008880099880790999C97941EA0020D549B1
:10105000C8800998007A0999497A41EA0020D14963
:1010600008800998807A0999C97A41EA0020CD4917
:1010700048800998007B0999497B41EA0020C949C9
:1010800008810998807B0999C97B41EA0020C549FC
:1010900048810998007C0999497C41EA0020C149AE
:1010A00088810998807C0999C97C41EA0020BD4962
:1010B000C8810998807810287ED1099800790002AB
:1010C00000B209994979084301900AF021FB9FED8C
:1010D000B60B53EC102BCDE902019DED020B51EC48
:1010E000100B0AF02DFBCDE904019DED040B51EC32
:1010F000100B0AF0DBF8AE494865099880790002C8
:1011000000B20999C979084301900AF001FB9FEDEB
:10111000A60B53EC102BCDE902019DED020B51EC17
:10112000100B0AF00DFBCDE904019DED040B51EC11
:10113000100B0AF0BBF89E49C8650998007A0002B6
:1011400000B20999497A084301900AF0E1FA9FED4B
:10115000960B53EC102BCDE902019DED020B51ECE7
:10116000100B0AF0EDFACDE904019DED040B51ECF2
:10117000100B0AF09BF88E4988650998807A000266
:1011800000B20999C97A084301900AF0C1FA9FEDAB
:10119000860B53EC102BCDE902019DED020B51ECB7
:1011A000100B0AF0CDFACDE904019DED040B51ECD2
:1011B000100B0AF07BF800E0B0E07D494866099822
:1011C000007B000200B20999497B084301900AF0B4
:1011D0009FFA9FED750B53EC102BCDE902019DEDAD
:1011E000020B51EC100B0AF0ABFACDE904019DEDB6
:1011F000040B51EC100B0AF059F801466C48C1661B
:101200000998807B000200B20999C97B08430190CC
:101210000AF07EFA9FED640B53EC102BCDE902012E
:101220009DED020B51EC100B0AF08AFACDE9040196
:101230009DED040B51EC100B0AF038F801465C48A8
:1012400081660998007C000200B20999497C084334
:1012500001900AF05DFA9FED540B53EC102BCDE991
:1012600002019DED020B51EC100B0AF069FACDE979
:1012700004019DED040B51EC100B0AF017F84C49DA
:1012800048670998807C000200B20999C97C08432C
:1012900001900AF03DFA9FED440B53EC102BCDE981
:1012A00002019DED020B51EC100B0AF049FACDE959
:1012B00004019DED040B51EC100B09F0F7FF014602
:1012C0003B48C1670998007D000200B20999497D39
:1012D000084301900AF01CFA9FED330B53EC102BDE
:1012E000CDE902019DED020B51EC100B0AF028FA3A
:1012F000CDE904019DED040B51EC100B09F0D6FF74
:1013000001462B488167099880780590069900F07E
:10131000F5FB05F0FFF80120264908800998807840
:1013200011287DD109980079000200B20999497904
:10133000084301900AF0ECF99FED1B0B53EC102BC6
:10134000CDE902019DED020B51EC100B0AF0F8F90A
:10135000CDE904019DED040B51EC100B09F0A6FF43
:101360001549486509988079000200B20999C97940
:10137000084301900AF0CCF99FED0B0B53EC102BB6
:10138000CDE902019DED020B51EC100B0AF0D8F9EA
:1013900014E00000B4070020910400204030002039
:1013A000FC04002084300020FCA9F1D24D62503FA3
:1013B000EC2B002024060020B02C0020CDE90401F5
:1013C0009DED040B51EC100B09F070FFFE49C86550
:1013D0000998007A000200B20999497A08430190FD
:1013E0000AF096F91FED100B53EC102BCDE902011A
:1013F0009DED020B51EC100B0AF0A2F9CDE90401AE
:101400009DED040B51EC100B09F050FFEE4988657F
:101410000998807A000200B20999C97A084300E06D
:10142000C7E001900AF074F91FED210B53EC102B6B
:10143000CDE902019DED020B51EC100B0AF080F991
:10144000CDE904019DED040B51EC100B09F02EFFCA
:10145000DD4948660998007B000200B20999497B82
:10146000084301900AF054F91FED310B53EC102B97
:10147000CDE902019DED020B51EC100B0AF060F971
:10148000CDE904019DED040B51EC100B09F00EFFAA
:101490000146CD48C1660998807B000200B20999D7
:1014A000C97B084301900AF033F91FED410B53EC5F
:1014B000102BCDE902019DED020B51EC100B0AF04F
:1014C0003FF9CDE904019DED040B51EC100B09F03F
:1014D000EDFE0146BC4881660998007C000200B21E
:1014E0000999497C084301900AF012F91FED520B4B
:1014F00053EC102BCDE902019DED020B51EC100BCA
:101500000AF01EF9CDE904019DED040B51EC100B1E
:1015100009F0CCFEAC4948670998807C000200B213
:101520000999C97C084301900AF0F2F81FED620B9B
:1015300053EC102BCDE902019DED020B51EC100B89
:101540000AF0FEF8CDE904019DED040B51EC100BFF
:1015500009F0ACFE01469C48C1670998007D000275
:1015600000B20999497D084301900AF0D1F81FEDB6
:10157000720B53EC102BCDE902019DED020B51ECE7
:10158000100B0AF0DDF8CDE904019DED040B51ECE0
:10159000100B09F08BFE01468B4881670998807813
:1015A0000590069900F0AAFA04F0B4FF01208749DB
:1015B00008800998807812287ED109980079000265
:1015C00000B209994979084301900AF0A1F81FED8A
:1015D0008A0B53EC102BCDE902019DED020B51EC6F
:1015E000100B0AF0ADF8CDE904019DED040B51ECB0
:1015F000100B09F05BFE76490866099880790002B5
:1016000000B20999C979084301900AF081F81FEDE9
:101610009A0B53EC102BCDE902019DED020B51EC1E
:10162000100B0AF08DF8CDE904019DED040B51EC8F
:10163000100B09F03BFE664988660998007A0002A3
:1016400000B20999497A084301900AF061F81FED48
:10165000AA0B53EC102BCDE902019DED020B51ECCE
:10166000100B0AF06DF8CDE904019DED040B51EC6F
:10167000100B09F01BFE564948660998807A000253
:1016800000B20999C97A084301900AF041F81FEDA8
:10169000BA0B53EC102BCDE902019DED020B51EC7E
:1016A000100B0AF04DF8CDE904019DED040B51EC4F
:1016B000100B09F0FBFD00E0B6E04549086709980A
:1016C000007B000200B20999497B084301900AF0AF
:1016D0001FF81FEDCB0B53EC102BCDE902019DED54
:1016E000020B51EC100B0AF02BF8CDE904019DED33
:1016F000040B51EC100B09F0D9FD354988670998A6
:10170000807B000200B20999C97B0843019009F06F
:10171000FFFF1FEDDB0B53EC102BCDE902019DED1C
:10172000020B51EC100B0AF00BF8CDE904019DED12
:10173000040B51EC100B09F0B9FD254948670998D5
:10174000007C000200B20999497C0843019009F02D
:10175000DFFF1FEDEB0B53EC102BCDE902019DEDEC
:10176000020B51EC100B09F0EBFFCDE904019DEDEC
:10177000040B51EC100B09F099FD1549C1F88000DC
:101780000998807C000200B20999C97C0843019045
:1017900009F0BEFF1FEDFC0B53EC102BCDE902014D
:1017A0009DED020B51EC100B09F0CAFFCDE90401CD
:1017B0009DED040B51EC100B09F078FD0449C1F8C4
:1017C00088000998007D05E0B02C00202406002048
:1017D000400A0020000200B20999497D08430190A7
:1017E00009F096FF9FED860B53EC102BCDE902011B
:1017F0009DED020B51EC100B09F0A2FFCDE90401A5
:101800009DED040B51EC100B09F050FD7E49C1F821
:101810008400099880780590069900F06FF904F02B
:1018200079FE0120794908800998807813287CD1B5
:1018300009980079000200B209994979084301909A
:1018400009F066FF9FED6E0B53EC102BCDE9020102
:101850009DED020B51EC100B09F072FFCDE9040174
:101860009DED040B51EC100B09F020FD6649C1F809
:10187000900009988079000200B20999C97908435B
:10188000019009F045FF9FED5E0B53EC102BCDE965
:1018900002019DED020B51EC100B09F051FFCDE957
:1018A00004019DED040B51EC100B09F0FFFC014607
:1018B0005548C0F898100998007A000200B20999BA
:1018C000497A0843019009F023FF9FED4D0B53EC3B
:1018D000102BCDE902019DED020B51EC100B09F02C
:1018E0002FFFCDE904019DED040B51EC100B09F025
:1018F000DDFC4549C1F894000998007C000200B263
:101900000999497C0843019009F002FF9FED3C0BC7
:1019100053EC102BCDE902019DED020B51EC100BA5
:1019200009F00EFFCDE9040100E052E09DED040B4B
:1019300051EC100B09F0BAFC354908600998807C1D
:10194000000200B20999C97C0843019009F0E0FE49
:101950009FED2B0B53EC102BCDE902019DED020BFB
:1019600051EC100B09F0ECFECDE904019DED040BE8
:1019700051EC100B09F09AFC254948600998007D4C
:10198000000200B20999497D0843019009F0C0FEA8
:101990009FED1B0B53EC102BCDE902019DED020BCB
:1019A00051EC100B09F0CCFECDE904019DED040BC8
:1019B00051EC100B09F07AFC154988600998807881
:1019C0000590069900F09AF804F0A4FD01200F4953
:1019D000088009988078142805D1099880780590A6
:1019E000069900F08BF809988078152805D1099898
:1019F00080780590069900F081F800BFFFF7BABA29
:101A0000FCA9F1D24D62503F400A0020240600207C
:101A1000C830002010B504463448007838B9AA2CE4
:101A200005D1012031490870314804705DE02F482C
:101A30000078012807D1AF2C05D102202B4908706E
:101A40002B48447051E029480078022807D1F12C36
:101A500005DA0320254908702548847045E02348AD
:101A6000007803280CD1322C0ADA04201F490870B0
:101A70001F48C4701F48047000201F49087034E0DC
:101A80001A480078042819D11A480078002815DD72
:101A900018480078401E1749087017480078164902
:101AA0000978491C144A1170001D11490C54114841
:101AB0000078D0B905200D49087016E00B48007871
:101AC00005280FD10020094908700B480078001D37
:101AD00007490C5408480078401DC1B20448FFF77C
:101AE0002BFA02E000200149087010BD32060020E8
:101AF0009430002030060020310600202DE9F0410E
:101B000005460E460027AA200D4908704870EF20B0
:101B100088700220C870084605714671002405E0EF
:101B20000748005D3844C7B2601CC4B2062CF7DB1E
:101B300003488771072100F005F8BDE8F081000037
:101B40005130002070B505460C462146014805F08D
:101B500083FF70BD513000202DE9F0472DED028B41
:101B600082B006460F4690469946B0EE408A002461
:101B7000A246AA222146641C404842542146641CC5
:101B8000425404222146641C425400222146641C13
:101B900042542146641C46542146641C4754CDF8E7
:101BA00000809DF803202146641C42549DF80220C9
:101BB0002046611CCCB231490A549DF801202146CF
:101BC000601CC4B22D4842549DF800202146601C80
:101BD000C4B22A484254CDF800909DF80320204614
:101BE000611CCCB225490A549DF802202046611C94
:101BF000CCB222490A549DF801202046611CCCB287
:101C00001E490A549DF800202046611CCCB21B4995
:101C10000A549FED1B0A28EE000ABDEEC00A10EE22
:101C2000100A00B201909DF805202046611CCCB23C
:101C300012490A549DF804202046611CCCB20F4979
:101C40000A54201FC870002506E00C48405D50442F
:101C500000F0FF0A681CC5B2A542F6DB2046611CF5
:101C6000CCB2064901F800A021460448FFF76AFFFC
:101C700002B0BDEC028BBDE8F087000051300020BF
:101C80000000C8427FB500240026AA222146641C19
:101C9000464842542146641C425406222146641C94
:101CA000425400222146641C42549DF801202146E2
:101CB000641C42549DF800202146641C42549DF847
:101CC00005202146641C42549DF804202046611CD6
:101CD000CCB236490A549DF809202046611CCCB28A
:101CE00032490A549DF808202046611CCCB22F4985
:101CF0000A549DF80D202046611CCCB22B490A5491
:101D00009DF80C202046611CCCB228490A549DF84D
:101D100021202046611CCCB224490A549DF8202081
:101D20002046611CCCB221490A549DF8252020464A
:101D3000611CCCB21D490A549DF824202046611C28
:101D4000CCB21A490A549DF829202046611CCCB215
:101D500016490A549DF828202046611CCCB213492C
:101D60000A549DF82D202046611CCCB20F490A541C
:101D70009DF82C202046611CCCB20C490A54201F2F
:101D8000C870002505E00948405D3044C6B2681CB3
:101D9000C5B2A542F7DB2046611CCCB203490E5404
:101DA00021460248FFF7CEFE7FBD000051300020E3
:101DB000F0B52DED0A8B81B00646B0EE408AF0EE0C
:101DC000608AB0EE419AF0EE619AB0EE42AAF0EE6F
:101DD00062AAB0EE43BAF0EE63BAB0EE44CA002491
:101DE0000027AA222146641C7E4842542146641CD6
:101DF000425406F10F00C2B22146641C7948425495
:101E000000222146641C42549FED770A28EE000A06
:101E1000BDEEC00A10EE100A00B200909DF801203D
:101E20002146641C6F4842549DF800202146641CE2
:101E300042549FED6D0A28EE800ABDEEC00A10EEF6
:101E4000100A00B200909DF801202146641C6548EC
:101E500042549DF800202046611CCCB261490A54CE
:101E60009FED610A29EE000ABDEEC00A10EE100ACD
:101E700000B200909DF801202046611CCCB2594967
:101E80000A549DF800202046611CCCB255490A54E2
:101E90009FED550A29EE800ABDEEC00A10EE100A29
:101EA00000B200909DF801202046611CCCB24D4943
:101EB0000A549DF800202046611CCCB249490A54BE
:101EC0009FED490A2AEE000ABDEEC00A10EE100A84
:101ED00000B200909DF801202046611CCCB241491F
:101EE0000A549DF800202046611CCCB23D490A549A
:101EF0009FED3D0A2AEE800ABDEEC00A10EE100AE0
:101F000000B200909DF801202046611CCCB23549FA
:101F10000A549DF800202046611CCCB231490A5475
:101F20009FED310A2BEE000ABDEEC00A10EE100A3A
:101F300000B200909DF801202046611CCCB22949D6
:101F40000A549DF800202046611CCCB225490A5451
:101F50009FED250A2BEE800ABDEEC00A10EE100A96
:101F600000B200909DF801202046611CCCB21D49B2
:101F70000A549DF800202046611CCCB219490A542D
:101F80009FED190A2CEE000ABDEEC00A10EE100AF1
:101F900000B200909DF801202046611CCCB211498E
:101FA0000A549DF800202046611CCCB20D490A5409
:101FB000201FC870002505E00A48405D3844C7B2BC
:101FC000681CC5B2A542F7DB2046611CCCB20549AE
:101FD0000F5421460348FFF7B5FD01B0BDEC0A8B55
:101FE000F0BD00005130002000007A442DE9F84394
:101FF00006460F460024A046AA222146641C1F481C
:1020000042542146641C425405222146641C425419
:1020100000222146641C425400969DF8012021466E
:10202000641C42549DF800202146641C42540097D1
:102030009DF801202146641C42549DF80020204652
:10204000611CCCB20D490A54201FC870002506E05F
:102050000A48405D404400F0FF08681CC5B2A54234
:10206000F6DB2046611CCCB2044901F80080214611
:102070000248FFF767FDBDE8F883000051300020FB
:102080007FB500240026AA222146641C54484254ED
:102090002146641C425403222146641C42540022FF
:1020A0002146641C42549DF801202146641C425480
:1020B0009DF800202146641C42549DF805202146CD
:1020C000641C42549DF804202046611CCCB2444953
:1020D0000A549DF809202146601CC4B2404842546D
:1020E0009DF808202046611CCCB23D490A549DF859
:1020F0000D202046611CCCB239490A549DF80C20B1
:102100002046611CCCB236490A549DF82120204655
:10211000611CCCB232490A549DF820202046611C33
:10212000CCB22F490A549DF825202146601CC4B228
:102130002B4842549DF824202046611CCCB22849EB
:102140000A549DF829202046611CCCB224490A5427
:102150009DF828202146601CC4B2214842549DF8B5
:102160002D202046611CCCB21D490A549DF82C201C
:102170002046611CCCB21A490A549DF831202046F1
:10218000611CCCB216490A549DF830202046611CCF
:10219000CCB213490A549DF835202046611CCCB2BC
:1021A0000F490A549DF834202046611CCCB20C49DA
:1021B0000A54201FC870002505E00948405D3044DE
:1021C000C6B2681CC5B2A542F7DB2046611CCCB282
:1021D00003490E5421460248FFF7B4FC7FBD0000BE
:1021E000513000202DE9F84F06460F46904699469B
:1021F000DDF828B00024A246AA222146641C5F48CC
:1022000042542146641C425402222146641C42541A
:1022100000222146641C425400969DF8012021466C
:10222000641C42549DF800202146641C42540097CF
:102230009DF801202146641C42549DF80020204650
:10224000611CCCB24D490A54CDF800809DF80120A4
:102250002046611CCCB249490A549DF80020204612
:10226000611CCCB245490A54CDF800909DF801207C
:102270002046611CCCB241490A549DF800202046FA
:10228000611CCCB23D490A54CDF800B09DF8012044
:102290002046611CCCB239490A549DF800202046E2
:1022A000611CCCB235490A540B9800909DF801206E
:1022B0002046611CCCB231490A549DF800202046CA
:1022C000611CCCB22D490A540C9800909DF8012055
:1022D0002046611CCCB229490A549DF800202046B2
:1022E000611CCCB225490A540D9800909DF801203C
:1022F0002046611CCCB221490A549DF8002020469A
:10230000611CCCB21D490A540E9800909DF8012022
:102310002046611CCCB219490A549DF80020204681
:10232000611CCCB215490A54002000909DF8012090
:102330002046611CCCB211490A549DF80020204669
:10234000611CCCB20D490A54201FC870002506E05C
:102350000A48405D504400F0FF0A681CC5B2A5421F
:10236000F6DB2046611CCCB2044901F800A02146EE
:102370000248FFF7E7FBBDE8F88F0000513000206E
:1023800073B500240026AA222146641C2348425427
:102390002146641C425407222146641C42540022F8
:1023A0002146641C42549DF803202146641C42547B
:1023B0009DF802202146641C42549DF801202146CC
:1023C000641C42549DF800202046611CCCB2134985
:1023D0000A549DF805202046611CCCB20F490A54CE
:1023E0009DF804202046611CCCB20C490A54201FE1
:1023F000C870002505E00948405D3044C6B2681C3D
:10240000C5B2A542F7DB2046611CCCB203490E548D
:1024100021460248FFF796FB7CBD000051300020AA
:1024200070B52DED048B82B0B0EE408AF0EE608A7C
:10243000B0EE419A00240026AA222146641C3548A9
:1024400042542146641C42540B222146641C4254CF
:1024500000222146641C42549FED2F0A28EE000AF8
:10246000BDEEC00A10EE100A00B201909DF80520E2
:102470002146641C274842549DF804202146641CD0
:1024800042549FED250A28EE800ABDEEC00A10EEE8
:10249000100A00B201909DF805202146641C1D48D9
:1024A00042549DF804202046611CCCB219490A54BC
:1024B0009FED190A29EE000ABDEEC00A10EE100ABF
:1024C00000B201909DF805202046611CCCB2114954
:1024D0000A549DF804202046611CCCB20D490A54D0
:1024E000201FC870002505E00A48405D3044C6B290
:1024F000681CC5B2A542F7DB2046611CCCB2054979
:102500000E5421460348FFF71DFB02B0BDEC048BBF
:1025100070BD000051300020CDCCCC3D2DE9F04302
:102520002DED048B83B0B0EE408AF0EE608AB0EE01
:10253000419A06460F46904600240196A146AA22DB
:102540002146641C494842542146641C42540122DD
:102550002146641C425400222146641C42549FEDD3
:10256000440A28EE000ABDEEC00A10EE100A00B2BE
:1025700002909DF809202146641C3C4842549DF875
:1025800008202146641C42549FED390A28EE800A37
:10259000BDEEC00A10EE100A00B202909DF80920AC
:1025A0002146641C314842549DF808202046611C95
:1025B000CCB22E490A549FED2E0A29EE000ABDEE38
:1025C000C00A10EE100A00B202909DF809202046C1
:1025D000611CCCB225490A549DF808202046611C94
:1025E000CCB222490A549DF807202046611CCCB287
:1025F0001E490A549DF806202046611CCCB21B4996
:102600000A549DF805202046611CCCB217490A5493
:102610009DF804202046611CCCB214490A5420467F
:10262000611CCCB211490F542046611CCCB20F4939
:1026300001F80080201FC870002506E00B48405DAF
:10264000484400F0FF09681CC5B2A542F6DB2046ED
:10265000611CCCB2054901F8009021460348FFF700
:1026600071FA03B0BDEC048BBDE8F083513000205B
:102670000000C842F8B500240026AA222146641CA6
:10268000374842542146641C4254F1222146641CBE
:10269000425400222146641C4254012000909DF8BF
:1026A00001202146641C2E4842549DF800202146FA
:1026B000641C4254022000909DF801202146641CB5
:1026C000274842549DF800202046611CCCB2244982
:1026D0000A54032000909DF801202046611CCCB2D2
:1026E0001F490A549DF800202046611CCCB21C49A9
:1026F0000A54042000909DF801202046611CCCB2B1
:1027000017490A549DF800202146601CC4B21448A1
:102710004254052000909DF801202046611CCCB257
:102720000F490A549DF800202046611CCCB20C4988
:102730000A54201FC870002505E00948405D304458
:10274000C6B2681CC5B2A542F7DB2046611CCCB2FC
:1027500003490E5421460248FFF7F4F9F8BD000082
:10276000513000202DE9FF41064600240027AA220F
:102770002146641C2C4842542146641C42540022C9
:102780002146641C42542146641C42542146641C68
:1027900046549DF805202146641C42549DF80420AF
:1027A0002146641C42549DF809202046611CCCB28D
:1027B0001D490A549DF808202046611CCCB21A49D4
:1027C0000A549DF80D202146601CC4B2164842549C
:1027D0009DF80C202046611CCCB213490A549DF888
:1027E00029202046611CCCB20F490A549DF82820AC
:1027F0002046611CCCB20C490A54201FC870002529
:1028000005E00948405D3844C7B2681CC5B2A5421E
:10281000F7DB2046611CCCB203490F542146024825
:10282000FFF790F9BDE8FF815130002010B5234833
:1028300004F0D6FD02F00CFE01F0AEFF4FF4C870BC
:1028400001F0D9F903F096FE03F030FD04F028FF03
:102850004FF4E13008F0F8FB4FF4165008F050FC4C
:10286000174808F087FC4FF4E13008F0BDFC142055
:1028700003F0D8FA02F07EFF03F020FF642001F09D
:10288000BAF905F01BFD02200E49087001F0A8F905
:1028900005F04CF8FEF77CF880F001000A4908705A
:1028A0000A48007810B902F077FF04E00648007883
:1028B00008B902F097FF012010BD0000400500C1DB
:1028C00020A10700380500209004002048040020C3
:1028D00010B52DED048B8AB0F0EE408AB0EE609A10
:1028E000B0EE418A9FEDDC0AB4EEC08AF1EE10FA38
:1028F00002D29FEDD90A0BE09FEDD80AB4EEC08A50
:10290000F1EE10FA02DD9FEDD50A01E0B0EE480AC3
:10291000B0EE408AB1EE680A30EE090A30EE080ADD
:102920008DED040A38EE890A30EE480A8DED050A6D
:1029300038EEC90A30EE080A8DED060AB1EE680AD3
:1029400030EE490A30EE480A8DED070A002429E0EE
:1029500004A800EB840090ED000ADFEDC10AB4EE9C
:10296000E00AF1EE10FA02D29FEDBD0A13E004A8CE
:1029700000EB840090ED000ADFEDBA0AB4EEE00A45
:10298000F1EE10FA02DD9FEDB70A04E004A800EBB7
:10299000840090ED000A04A800EB840080ED000A9A
:1029A000601CC4B2042CD3DB9DED040AB5EEC00A52
:1029B000F1EE10FA02DD9DED040A03E09DED040A3C
:1029C000B1EE400ADFEDA80A60EE200A9FEDA51ADD
:1029D00080EE810ADFEDA50A30EE200ADDED040A63
:1029E00020EE200A8DED000A9DED050AB5EEC00A25
:1029F000F1EE10FA02DD9DED050A03E09DED050AFA
:102A0000B1EE400ADFED980A60EE200A9FED951ABC
:102A100080EE810ADFED950A30EE200ADDED050A31
:102A200020EE200A8DED010A9DED060AB5EEC00AE2
:102A3000F1EE10FA02DD9DED060A03E09DED060AB7
:102A4000B1EE400ADFED880A60EE200A9FED851A9C
:102A500080EE810ADFED850A30EE200ADDED060A00
:102A600020EE200A8DED020A9DED070AB5EEC00AA0
:102A7000F1EE10FA02DD9DED070A03E09DED070A75
:102A8000B1EE400ADFED780A60EE200A9FED751A7C
:102A900080EE810ADFED750A30EE200ADDED070ACF
:102AA00020EE200A8DED030ADDED000A704890ED5E
:102AB000000A704890ED001A01EE200A6E4880ED81
:102AC000000ADDED010A6A4890ED000A694890EDC0
:102AD000001A01EE200A684880ED010ADDED020AC5
:102AE000634890ED000A634890ED001A01EE200A59
:102AF000614880ED020ADDED030A5D4890ED000AB1
:102B00005C4890ED001A01EE200A5B4880ED030A54
:102B10005A48007888B35A48007878BB002429E0E6
:102B2000554800EB840090ED000ADFED560AB4EE44
:102B3000E00AF1EE10FA02D29FED520A13E04E487D
:102B400000EB840090ED000ADFED460AB4EEE00AE7
:102B5000F1EE10FA02DD9FED430A04E0464800EB77
:102B6000840090ED000A444800EB840080ED000AE8
:102B7000601CC4B2042CD3DB3BE02DE0FFE7002453
:102B800027E03D4800EB840090ED000AB5EEC00A56
:102B9000F1EE10FA02D29FED3C0A13E0364800EB4A
:102BA000840090ED000ADFED2F0AB4EEE00AF1EEAA
:102BB00010FA02DD9FED2B0A04E02F4800EB8400A1
:102BC00090ED000A2C4800EB840080ED000A601CA8
:102BD000C4B2042CD5DB0CE0002408E09FED2A0AE7
:102BE000254800EB840080ED000A601CC4B2042C70
:102BF000F4DB214890ED000ABDEEC00A10EE100A89
:102C000000B2ADF820001C4890ED010ABDEEC00AEC
:102C100010EE100A00B2ADF82200174890ED020A3B
:102C2000BDEEC00A10EE100A00B2ADF82400124842
:102C300090ED030ABDEEC00A10EE100A00B2ADF826
:102C400026004FF47A72002108A804F0B7FA0AB0FF
:102C5000BDEC048B10BD00000000C8C30000C843D9
:102C600000007AC400007A446666E63ECDCC0C3F94
:102C70008C05002094050020C02D00203405002084
:102C800090050020000048430000000000B50E48F9
:102C90000078401C0C490870087800EBD07149108E
:102CA000A0EB4101084A11701046007858B9074856
:102CB000007808B100F0AEFF0448407818B14FF436
:102CC000487004F021FA00BD3806002034060020C8
:102CD0001F4890ED001ABDEEC11A11EE100A00B2A5
:102CE00038B91C4890ED001AB8EEC11A184880EDAA
:102CF000001A184890ED001AB8EEC11A1448D0ED29
:102D0000001A31EE611AF2EE041A21EE211A12486D
:102D100080ED001A114890ED001A1148D0ED001A0C
:102D200000EE211A0D4880ED001A9FED0E1A60EE9C
:102D3000011A094890ED001A084890ED002A31EE7A
:102D4000422A90ED001A01EE821A80ED001A7047B7
:102D500020060020C8040020E8050020E00500202F
:102D6000D00500209CC4203F13285CD00BDC092830
:102D700026D003DC90B3022879D135E0102811D099
:102D8000122874D138E0A0F1140105296FD2DFE8D0
:102D900001F0610366266A0036490978C943354A5D
:102DA000117065E034494988491C334A5180114605
:102DB0004988B1F5FA6F02DD4FF4FA61518057E0AE
:102DC0002D494988491E2C4A518011464988B1F540
:102DD0007A7F02DA4FF47A71518049E008E040F2DC
:102DE000DC51254A518043E00221244A11703FE022
:102DF0000021224A11703BE0214991ED000ADFEDEC
:102E0000210A30EE200A81ED000A91ED000ADFED83
:102E10001E0AB4EEE00AF1EE10FA03DD9FED1A0A85
:102E200081ED000A24E0164991ED000ADFED150A54
:102E300030EE600A81ED000A91ED000ADFED130A21
:102E4000B4EEE00AF1EE10FA03D29FED100A81ED24
:102E5000000A0DE001210E4A117009E007E001218E
:102E60000B4A517004E001210A4A117000E000BFD2
:102E700000BF70473405002084070020380500207B
:102E8000EC05002000004842000096440000C842C3
:102E900034060020740500200246002007E0054BA0
:102EA0001B5632F8133021F81030431CD8B20828D2
:102EB000F5DB7047F404002000B52DED028B83B0E4
:102EC000B0EE408AFB4890ED120AF3EE0E0A80EE57
:102ED000201A9FEDF90A21EE000A8DED000AD0EDCF
:102EE000130AB3EE0E1A80EE810ADFEDF30A20EE2C
:102EF000200A8DED010A90ED140AF3EE0E0A80EE21
:102F0000201A9FEDED0A21EE000A8DED020A9DEDDB
:102F1000000AEA4880ED000A9DED010A80ED010AF1
:102F20009DED020A80ED020A90ED000ADFEDE40A51
:102F3000B4EEE00AF1EE10FA02D29FEDE10A0FE0E2
:102F4000DE4890ED000ADFEDDC0AB4EEE00AF1EEB7
:102F500010FA02DD9FEDD80A02E0D84890ED000A91
:102F6000D64880ED000A90ED010ADFEDD50AB4EEF7
:102F7000E00AF1EE10FA02D29FEDD10A0FE0CF483D
:102F800090ED010ADFEDCC0AB4EEE00AF1EE10FAA2
:102F900002DD9FEDC90A02E0C84890ED010AC7486A
:102FA00080ED010A90ED020ADFEDC50AB4EEE00AF9
:102FB000F1EE10FA02D29FEDC20A0FE0BF4890ED89
:102FC000020ADFEDBD0AB4EEE00AF1EE10FA02DD0E
:102FD0009FEDB90A02E0B94890ED020AB74880EDCA
:102FE000020ADFEDB80A80EE880AB748D0ED0A0A77
:102FF000B64890ED001A70EEC10A20EE200AB448DF
:1030000080ED0F0ADFEDAF0A80EE880AAE48D0ED02
:103010000B0AF1EE600AAD4890ED011A70EEC10A9C
:1030200020EE200AAA4880ED100ADFEDA60A80EE05
:10303000880AA548D0ED0C0AF1EE600AA34890ED8D
:10304000021A70EEC10A20EE200AA14880ED110A92
:103050009A4890ED000A9C48D0ED0A0A30EE600ACA
:10306000F7EE000A20EE200A994880ED000A934806
:1030700090ED010A9448D0ED0B0A30EE200AF7EEED
:10308000000A20EE200A924880ED010A8B4890ED5C
:10309000020A8D48D0ED0C0A30EE200AF7EE000A45
:1030A00020EE200A8A4880ED020A90ED000AB5EE73
:1030B000C00AF1EE10FA02DD90ED000A04E0844847
:1030C00090ED000AB1EE400ADFED7B0A80EE201A97
:1030D0007F4880ED2D1A90ED010AB5EEC00AF1EEA1
:1030E00010FA02DD90ED010A04E0794890ED010A42
:1030F000B1EE400ADFED700A80EE201A744880EDD0
:103100002E1A90ED020AB5EEC00AF1EE10FA02DDB9
:1031100090ED020A04E06E4890ED020AB1EE400A1A
:10312000DFED6C0A80EE201A694880ED2F1ADFED82
:10313000650A80EE880AD0ED160A90ED0F1AFAEEB5
:10314000041A21EE211A60EE810A20EE200A80ED99
:103150000C0ADFED5C0A80EE880AD0ED1A0A90EDC9
:10316000101AFAEE041A21EE211A60EE810A20EEFE
:10317000200A80ED0D0ADFED530A80EE880AD0EDBB
:103180001E0A90ED111AFAEE041A21EE211A60EED1
:10319000810A20EE200A80ED0E0A90ED000AD0EDA3
:1031A0000F0A30EE600AD0ED170A60EE200A90EDAB
:1031B000060A00EE880A80ED060A90ED010AD0EDBD
:1031C000100A30EE600AD0ED1B0A60EE200A90ED86
:1031D000070A00EE880A80ED070A90ED020AD0ED9A
:1031E000110A30EE600AD0ED1F0A60EE200A90ED61
:1031F000080A00EE880A80ED080A374890ED000AB8
:10320000F6EE000A20EE200ADFED2B0A20EE200A5F
:103210002F4880ED090A304890ED000AF6EE000ACA
:1032200020EE200ADFED240A20EE200A284880ED57
:103230000A0A294890ED000AF6EE000A20EE200A5C
:10324000DFED1D0A20EE200A214880ED0B0A90EDEB
:10325000060AD0ED090AF1EE600AB4EEE00AF1EEDA
:1032600010FA04D290ED090AB1EE400A0FE01848B6
:1032700090ED060AD0ED090AB4EEE00AF1EE10FA7C
:1032800002DD90ED090A02E0114890ED060A1048AF
:1032900080ED060A90ED070AD0ED0A0AF1EE600A09
:1032A000B4EEE00AF1EE10FA18D290ED0A0AB1EE8F
:1032B000400A23E0B02C002000009643982D002007
:1032C000000096C36F12033BB4070020A42D00201A
:1032D000EC2B00200000164394050020B44890ED2C
:1032E000070AD0ED0A0AB4EEE00AF1EE10FA02DDA8
:1032F00090ED0A0A02E0AE4890ED070AAC4880ED76
:10330000070A90ED080AD0ED0B0AF1EE600AB4EE60
:10331000E00AF1EE10FA04D290ED0B0AB1EE400A89
:103320000FE0A34890ED080AD0ED0B0AB4EEE00AD6
:10333000F1EE10FA02DD90ED0B0A02E09C4890EDF0
:10334000080A9B4880ED080A90ED300AF7EE000A63
:1033500030EEC00AD0ED150A20EE200AD0ED000AAA
:1033600090ED0C1A70EE810A90ED061A70EE810A4B
:1033700060EE200A90ED301A8E48D0ED2D1A9FEDA8
:103380008E0A9FED8E2A02EE210AB5EEC00AF1EEFA
:1033900010FA02D29FED8A0A1BE08648D0ED2D1A62
:1033A0009FED850A9FED852A02EE210AF7EE001AAD
:1033B000B4EEE10AF1EE10FA02DDB7EE000A08E021
:1033C0007C48D0ED2D1A9FED7C0A9FED7C2A02EE01
:1033D000210A21EE000A7B4890ED001A40EE010A16
:1033E000B0EE080A20EE800A714880ED120A90EDD6
:1033F000300AF7EE000A30EEC00AD0ED190A20EECE
:10340000200AD0ED010A90ED0D1A70EE810A90EDC0
:10341000071A70EE810A60EE200A90ED301A6548B6
:10342000D0ED2E1A9FED640A9FED642A02EE210A68
:10343000B5EEC00AF1EE10FA02D29FED610A1BE070
:103440005C48D0ED2E1A9FED5C0A9FED5C2A02EEDF
:10345000210AF7EE001AB4EEE10AF1EE10FA02DDED
:10346000B7EE000A08E05348D0ED2E1A9FED520A3D
:103470009FED522A02EE210A21EE000A514890EDFA
:10348000011A40EE010AB0EE080A20EE800A484810
:1034900080ED130A90ED300AF7EE000A30EEC00A14
:1034A000D0ED1D0A20EE200AD0ED020A90ED0E1A92
:1034B00070EE810A90ED081A70EE810A60EE200A23
:1034C00090ED301A3B48D0ED2F1A9FED3B0A9FED4F
:1034D0003B2A02EE210AB5EEC00AF1EE10FA02D242
:1034E0009FED370A1BE03348D0ED2F1A9FED320ACB
:1034F0009FED322A02EE210AF7EE001AB4EEE10A3D
:10350000F1EE10FA02DDB7EE000A08E02948D0ED2E
:103510002F1A9FED290A9FED292A02EE210A21EE9A
:10352000000A284890ED021A40EE010AB0EE080A9F
:1035300020EE800A1E4880ED140AB0EE480A04F01E
:10354000B7F81B48D0ED141AB0EE611AD0ED131A7B
:10355000F0EE610AD0ED121AB0EE610AFFF7B8F989
:10356000134890ED000A80ED030A90ED010A80ED0A
:10357000040A90ED020A80ED050A134890ED0A0A4C
:10358000124880ED000A104890ED0B0AB1EE400A97
:103590000E4880ED010A0C4890ED0C0AB1EE400A8D
:1035A0000A4880ED020A03B0BDEC028B00BD0000AA
:1035B000EC2B0020B02C00206666E63ECDCC0C3F04
:1035C00000000000982D0020B4070020A42D00204A
:1035D00010B52DED0E8BB0EE408AF948D0ED000A03
:1035E000B0EE600AF3EE0E0A07F08CFADFEDF50A92
:1035F00080EE201AB3EE090A21EE000AF24880EDAF
:10360000000AEF48D0ED010AF1EE600AB0EE600A60
:10361000F3EE0E0A07F076FADFEDEA0A80EE201AE2
:10362000B3EE090A21EE000AE74880ED010AE748F7
:10363000007808BBE248D0ED030AB0EE600ADFED87
:10364000E40A07F081FA9FEDDF1AC0EE010A9FED50
:10365000E10A20EE800ABDEEC00A10EE100A00B2A8
:1036600000EE100AF8EEC00AD74890ED020A00EE0C
:10367000880A80ED020A36E0D34890ED020AD64867
:10368000D0ED000A30EEC00A10EE101A084608F01D
:1036900017FB41EC1C0B18EE100A08F011FB41EC73
:1036A0001E0B9FEDCE0B53EC102B08F049F841ECAC
:1036B0001D0B53EC1C2B08F043F841EC1A0BC248CD
:1036C00090ED020A10EE101A084608F0F9FA41ECE3
:1036D0001B0B53EC1A2B07F01BFE41EC190B07F0E8
:1036E000E5FDB9498860B848D0ED020AB0EE600A3D
:1036F00004F0F8F8B44880ED020ABA48D0ED000AA8
:10370000B14890ED001A70EE810AB74890ED001AAA
:1037100070EEC10AB0EE600A04F0E4F8B34880ED40
:10372000000AB048D0ED010AA74890ED011A70EEEA
:10373000810AAF4890ED001A70EEC10AB0EE600A3F
:1037400004F0D0F8A94880ED010AA648D0ED020A9D
:103750009D4890ED021A70EE810A9F4890ED001A84
:1037600070EEC10AB2EE041A70EEC10AB0EE600A41
:1037700004F0B8F89D4880ED020A90ED000AB5EE1D
:10378000C00AF1EE10FA02DD90ED000A04E097485D
:1037900090ED000AB1EE400AF3EE0E0A80EE201A18
:1037A000924880ED2D1A90ED010AB5EEC00AF1EEB7
:1037B00010FA02DD90ED010A04E08C4890ED010A58
:1037C000B1EE400AF3EE0E0A80EE201A874880ED33
:1037D0002E1A90ED020AB5EEC00AF1EE10FA02DDE3
:1037E00090ED020A04E0814890ED020AB1EE400A31
:1037F000F3EE0E0A80EE201A7C4880ED2F1ADFEDE2
:103800007D0A80EE880AD0ED000A90ED031A70EE72
:10381000C10A90ED161AF2EE041A21EE211A60EE9A
:10382000810A60EE200A90ED2D1A9FED730ADFEDFC
:10383000731A01EE810A20EE800A80ED0C0ADFED9A
:103840006D0A80EE880AD0ED010A90ED041A70EE40
:10385000C10A90ED1A1AF2EE041A21EE211A60EE56
:10386000810A60EE200A90ED2E1A9FED630ADFEDCB
:10387000631A01EE810A20EE800A80ED0D0ADFED69
:103880005D0A80EE880AD0ED020A90ED051A70EE0E
:10389000C10A90ED1E1AF2EE041A21EE211A60EE12
:1038A000810A60EE200A90ED2F1A9FED530ADFED9A
:1038B000531A01EE810A20EE800A80ED0E0A90ED87
:1038C000170AD0ED000A60EE200A90ED060A00EE1D
:1038D000880A80ED060A90ED1B0AD0ED010A60EE21
:1038E000200A90ED070A00EE880A80ED070A90EDA5
:1038F0001F0AD0ED020A60EE200A90ED080A00EEE1
:10390000880A80ED080A3E4890ED000AF6EE000AAB
:1039100020EE200AF3EE090A20EE200A334880ED5B
:10392000090A374890ED000AF6EE000A20EE200A58
:10393000F3EE090A20EE200A2C4880ED0A0A3048EE
:1039400090ED000AF6EE000A20EE200AF3EE090AD6
:1039500020EE200A254880ED0B0A90ED060AD0EDF6
:10396000090AF1EE600AB4EEE00AF1EE10FA04D2B0
:1039700090ED090AB1EE400A0FE01C4890ED060AEE
:10398000D0ED090AB4EEE00AF1EE10FA02DD90ED96
:10399000090A02E0154890ED060A144880ED060A6F
:1039A00090ED070AD0ED0A0AF1EE600AB4EEE00AE3
:1039B000F1EE10FA26D290ED0A0AB1EE400A31E09B
:1039C000800900200000FA43742D0020900500209B
:1039D0000000204200001643540500201F85EB51D3
:1039E000B81E0940802D00204C050020B02C00207E
:1039F000500500200AD7A33B6666263F3333B33E0B
:103A000094050020684890ED070AD0ED0A0AB4EE4C
:103A1000E00AF1EE10FA02DD90ED0A0A02E06248D7
:103A200090ED070A604880ED070A90ED080AD0ED96
:103A30000B0AF1EE600AB4EEE00AF1EE10FA04D2DD
:103A400090ED0B0AB1EE400A0FE0574890ED080ADE
:103A5000D0ED0B0AB4EEE00AF1EE10FA02DD90EDC3
:103A60000B0A02E0504890ED080A4F4880ED080A22
:103A700090ED000ADFED4D0AB4EEE00AF1EE10FA27
:103A800002D29FED4A0A0FE0474890ED000ADFEDB1
:103A9000480AB4EEE00AF1EE10FA02DD9FED440AA6
:103AA00002E0414890ED000A3F4880ED000A90EDA9
:103AB000010ADFED3E0AB4EEE00AF1EE10FA02D29E
:103AC0009FED3A0A0FE0384890ED010ADFED380A21
:103AD000B4EEE00AF1EE10FA02DD9FED350A02E0E5
:103AE000314890ED010A304880ED010A90ED020A5C
:103AF000DFED2E0AB4EEE00AF1EE10FA02D29FEDED
:103B00002B0A0FE0284890ED020ADFED290AB4EEF7
:103B1000E00AF1EE10FA02DD9FED250A02E02248EC
:103B200090ED020A204880ED020A90ED000AD0EDE7
:103B30000C0A30EE200AD0ED060A30EE200AD0ED55
:103B4000150A20EE200A80ED120A90ED010AD0ED50
:103B50000D0A30EE200AD0ED070A30EE200AD0ED33
:103B6000190A20EE200A80ED130A90ED020AD0ED2A
:103B70000E0A30EE200AD0ED080A30EE200AD0ED11
:103B80001D0A20EE200A80ED140A90ED000A80ED57
:103B9000030A90ED010A80ED040A90ED020A80ED1F
:103BA000050ABDEC0E8B10BDB02C00200000B4C285
:103BB0000000B442B7EE000A074880ED180AB7EEDD
:103BC000000A80ED1C0AB7EE000A80ED200A9FED86
:103BD000030A80ED300A7047EC2B0020CDCC4C3E20
:103BE00010B5002404E0204600F05CFC601CC4B268
:103BF000052CF8DB10BD70B5044603F03BFB41F229
:103C00007071B0FBF1F000FB04F52846FCF79EFB59
:103C100070BD00000020104948709FED100A104848
:103C200080ED000A0F488088001F0E4988800846F2
:103C30008088B0F5966F02DA4FF4966088800A4863
:103C400000885A2806DA4FF49660064988800020DA
:103C50000149087070470000340600200000C84287
:103C6000EC05002084070020C004002010B502F0FD
:103C70008BFB10B1012015490870032000F012FCE5
:103C800000F0F6FB00EE100AB8EE400ADFED100A75
:103C900080EE201A0F4880ED021AFCF7F5FD00F0C7
:103CA000E7FB00EE100AB8EE400ADFED090A80EEED
:103CB000201A084880ED031A90ED030AD0ED020A9D
:103CC00030EE600A044880ED000A10BDDC050020DB
:103CD00000247449582E0020BC05002010B503486C
:103CE00001F0BEFBFCF762FE10BD0000AE04002038
:103CF0007047000010B52DED028B002000F0D2FBC4
:103D0000B0EE408A00F0B4FB00EE100AB8EE400AB4
:103D1000DFED120A80EE201A114880ED001A03F040
:103D20002DFEB0EE480A01F02FFEB0EE480AFFF774
:103D3000C3F80C48B0EE480A02F014FF00F098FBFC
:103D400000EE100AB8EE400ADFED040A80EE201AF9
:103D5000034880ED011ABDEC028B10BD00247449AC
:103D6000582E00208407002010B501F0CDFB04F090
:103D70003FFA042000F096FBFEF788FF10BD00001C
:103D800010B52DED028B022000F08CFBB0EE408AC6
:103D90001548D0ED063AB0EE633AD0ED053AF0EEB4
:103DA000632AD0ED043AB0EE632AD0ED0C3AF0EE7F
:103DB000631AD0ED0B3AB0EE631AD0ED0A3AF0EE8A
:103DC000630AF6EE003A68EE233AB0EE630A074A59
:103DD0000749084800F0D2FEB0EE480AFFF7F8FBAA
:103DE000BDEC028B10BD0000B4070020540500207C
:103DF000500500204C05002010B52048007801280F
:103E00003BD11F48008800B21E490880FFF766FFBB
:103E10001A48B0F90400022804DB00201749888002
:103E2000FFF768FF1548B0F90600052804DB0020FD
:103E30001249C880FFF7A4FF1048B0F908000A280B
:103E400004DB00200D490881FFF710FF0B48B0F993
:103E50000A00142804DB002008494881FFF748FFC6
:103E60000648B0F90C00322804DB002003498881A1
:103E7000FFF77AFF00200149087010BD482E00208E
:103E800030000020B8050020024908700021024AD5
:103E900011807047FC040020060500200048704790
:103EA000742B002008B5FF2000F002F9684600F0EE
:103EB0007EF89DF80000EF2831D14FF480501C4966
:103EC00048809DF80200182803D14FF48050888064
:103ED0001DE09DF80200172804D14FF4006014493A
:103EE000888014E09DF80200162804D14FF4806009
:103EF0000F4988800BE09DF80200152804D14FF48B
:103F000000700B49888002E0002009498880084839
:103F100040880749898848430549886003E00020B4
:103F20000349087008BD01200149087000BFF9E786
:103F3000742B002070B504460D461646032000F091
:103F4000B7F8C4F3074000F0B3F8C4F3072000F05B
:103F5000AFF8E0B200F0ACF804E0FF2000F0A8F801
:103F600028706D1C3000A6F10106F6D170BD70B549
:103F700004460D46164600F0ADF8022000F098F811
:103F8000C4F3074000F094F8C4F3072000F090F861
:103F9000E0B200F08DF803E0287800F089F86D1C9D
:103FA0003000A6F10106F7D100F085F870BD70B5BC
:103FB00005462C469F2000F07BF8FF2000F078F8A3
:103FC00004F8010BFF2000F073F804F8010BFF2048
:103FD00000F06EF804F8010B287870BD70B5044647
:103FE0000D4600F077F8202000F062F8C4F3074097
:103FF00000F05EF8C4F3072000F05AF8E0B200F0D9
:1040000057F80DB100F057F870BD00002DE9F041F0
:1040100004460D461646002700BF0DE008484288BA
:1040200029462046FFF786FF054840880544044896
:1040300040880444781C87B2B742EFDBBDE8F081CA
:10404000742B00202DE9F04104460D46164600274A
:1040500016494888C11700EB11614FEA212800F08A
:1040600039F800BF1EE001212046FFF7B7FF0F49D6
:104070004888C11700EB11614FEA212809E04FF48D
:10408000807229462046FFF772FF05F5807504F51A
:1040900080745FEA0800A8F101011FFA81F8EED1EF
:1040A000781C87B2B742DEDBBDE8F081742B0020BC
:1040B00001460020704710B5002400BF0520FFF71F
:1040C000F7FFFF20FFF7F4FF044604F0010000288B
:1040D000F4D110BD10B50620FFF7EAFF10BD0000B7
:1040E0003B48D0ED020A9FED3B1AF4EEC10AF1EE17
:1040F00010FA51D2D0ED030A9FED361AF4EEC10A40
:10410000F1EE10FA1AD23448B0F90000401CC8B3DE
:1041100032480078B0B33048B0F9000000EE900AA1
:10412000F8EEE00A9FED2E1A41EE000AFDEEE00ADD
:1041300010EE900A00B22849088030E02448D0ED03
:10414000030A9FED281AF4EEC10AF1EE10FA1ADD07
:104150002148B0F90000401CA0B12048007888B97F
:104160001D48B0F9000000EE900AF8EEE00A9FED5D
:104170001C1A41EE000AFDEEE00A10EE900A00B2B1
:10418000154908800BE01448B0F90000401C30B914
:1041900000201149088002E000200F4908800E48E5
:1041A000B0F90000B0F57A7F10DD4FF0FF300A491A
:1041B00008800A48007830B90120084908700220B8
:1041C0000949487002E00020044908707047000067
:1041D000800900200000C8C33605002034050020F7
:1041E00000007A440000C843B407002002F0010335
:1041F0001BB1D0F800340B4302E0D0F800348B43FD
:10420000C0F8003402F002031BB1D0F820340B4395
:1042100002E0D0F820348B43C0F820347047F0B56A
:10422000002416E00125A5400D4085B1D0F8C45FFB
:1042300067000326BE40B543C0F8C45FD0F8C45F32
:104240006700C2F34116BE403543C0F8C45F651C29
:10425000ECB2082CE6DB02F001051DB1D0F80055E8
:104260000D4302E0D0F800558D43C0F8005502F030
:1042700002051DB1D0F804550D4302E0D0F80455F5
:104280008D43C0F8045502F004051DB1D0F808555F
:104290000D4302E0D0F808558D43C0F8085502F0F0
:1042A00008051DB1D0F818550D4302E0D0F8185597
:1042B0008D43C0F8185502F010051DB1D0F83C55DB
:1042C0000D4302E0D0F83C558D43C0F83C5503F057
:1042D00001051DB1D0F80C550D4302E0D0F80C5586
:1042E0008D43C0F80C5503F002051DB1D0F81055F0
:1042F0000D4302E0D0F810558D43C0F8105503F07F
:1043000004051DB1D0F814550D4302E0D0F8145542
:104310008D43C0F8145503F008051DB1D0F81C55A5
:104320000D4302E0D0F81C558D43C0F81C5503F432
:1043300000751DB1D0F844550D4302E0D0F8445546
:104340008D43C0F8445503F440751DB1D0F8405575
:104350000D4302E0D0F840558D43C0F840551BB9DD
:10436000D0F828550D4302E0D0F828558D43C0F809
:104370002855F0BD10B50146C1F307400F4BDB6E69
:1043800001248440234033B1012303EB40030C4C50
:1043900054F8230003E04300094C54F82300C1F310
:1043A0000722D0F82C350F249440A34301F00F04CA
:1043B00094402343C0F82C3510BD000000E00F40AE
:1043C00038BF00000246002000EB81001058704703
:1043D00030B504460D460823012229462046FFF742
:1043E0001EFF012229462046FFF700FF30BD30B5F1
:1043F00004460D46022229462046FFF7F7FE092310
:10440000012229462046FFF70AFF30BD30B5044699
:104410000D46022229462046FFF7E8FE0823012226
:1044200029462046FFF7FBFE30BD30B504460D4659
:10443000022229462046FFF7D9FE082301222946F9
:104440002046FFF7ECFE30BD30B504460D46022293
:1044500029462046FFF7CAFE0823012229462046A6
:10446000FFF7DDFE30BD002303EB8103C250704730
:1044700070B50B48046803F0A0F8064603F0A7F8EF
:10448000361A4FF47A70464303F097F8B6FBF0F013
:1044900004EB4401C1EBC41100EBC105284670BD1B
:1044A0002000002010B5044604EB44001B4901EB3A
:1044B000800090ED000A04EB440001EB800080EDE9
:1044C000010AFFF7D5FF00EE100AB8EE400ADFED53
:1044D000140A80EE201A04EB4400104901EB80001E
:1044E00080ED001A04EB440001EB800090ED000A1F
:1044F00004EB440001EB8000D0ED010A30EE600ACD
:1045000004EB440001EB800080ED020A04EB440060
:1045100001EB800090ED020A10BD0000480700206A
:104520000024744910B52DED048BF0EE408AB0EEF6
:10453000608A7E48007810B101287DD11AE07C485D
:1045400090ED060ADFED7B0AB4EEE00AF1EE10FA18
:1045500003DD0120754908700BE077480088401C96
:1045600080B275490880B0F5FA7F02DD01206F49FD
:104570000870D7E09FED710A28EE800AF7EE000A76
:1045800080EE801AB7EE000A31EE000AB7EE001A8C
:10459000C1EE000A6A4890ED020A654890ED061ADD
:1045A00020EE010A664890ED001A6148D0ED041A29
:1045B00001EE210A624890ED011A5D48D0ED051A1E
:1045C00001EE210A9FED5F1A30EE410A5E4890ED40
:1045D000001A30EE411A90ED000A00EE810A80EDDB
:1045E000000A9FED5A0A28EE800AF7EE000A80EED4
:1045F000801AB7EE000A31EE000AF7EE000A80EEEC
:10460000801A9FED530A78EE400A524890ED000A56
:10461000DFED511A11EEA00AD0ED000A41EE000ABA
:10462000C0ED000A4D48D0ED000AB2EE041A60EE6B
:10463000810AB0EE600A00E073E0494B494A642108
:10464000494801F0BBFE49480078012828D1484874
:104650000078012857D1DFED3E0A78EE600AB0EE0F
:10466000600ADFED440A06F04DFAF1EE000A20EE92
:10467000200AB0EE409A3A48D0ED001AB0EE491A3E
:10468000F0EE480A9FED3C0A05F0D8FF00203849BB
:104690000870F0EE480A9FED380AFEF719FB32E089
:1046A0003248007802282ED134480078401C334923
:1046B0000870084600780A2190FBF1F201FB120015
:1046C0002E4908700846007888B92D4890ED000AF8
:1046D000DFED210A20EE200AB0EE401A2948D0ED85
:1046E000001AF0EE480A9FED240A05F0A7FF2648BD
:1046F000007840B9F0EE480A9FED240A03F070FA02
:10470000FF20214908701948007830B1204890ED09
:10471000040A204880ED000A02E01E4880ED008A6D
:1047200000E000BF00BFBDEC048B10BD08060020F8
:10473000B407002000007A450A06002034337B428B
:10474000802B002000008045C8050020C3F5C83F2D
:104750000000FA4304060020CDCCCC3ED00400205B
:10476000C0050020CC0500208C2E0020380500203C
:10477000DC050020000048420AD7A33C0C060020BC
:1047800000060020F8050020BC040020CDCCCC3D64
:104790006C2E0020C405002010B5134802F0B6FEB0
:1047A000124802F0B3FE1248FFF7E4FD1148FFF78C
:1047B000E1FD04211048FFF729FE08210E48FFF70C
:1047C00016FE02F057FD0446012221460B4800F078
:1047D00043F80A4800F02CF8084800F06BF8112163
:1047E000064800F06AF810BD002000F0010800F053
:1047F00003080100030C01000050004000000240CB
:1048000002480068401C01490860704714000020FD
:104810000146486800F0010008B1012070470020FF
:10482000FCE74160704701468868704781607047C7
:10483000016A41F01001016270470246516801F0BF
:10484000010008B10020704701F0120010B101F022
:104850001C00F8E70020F6E770B503460C46164644
:104860001846FFF7E5FF012E01D10F4A00E00F4A7D
:10487000142000FB0240401E02EB82018900B0FBC5
:10488000F1F0451EDD60D3F8C00F00F0010048B123
:1048900007482044401E0649B0FBF1F0451E45F094
:1048A0008000D86070BD0000801A0600A08601005C
:1048B0008047370101210161704702690A430261A3
:1048C000704742EA41030360704700002DE9F04160
:1048D0000746884614461D46002239464A48FFF7D7
:1048E000F0FF41464848FFF7A1FF07214648FFF780
:1048F00098FF00BF4448FFF78BFF0028FAD14248D9
:10490000FFF79BFF414908600846006818B1084658
:104910000068BDE8F081012239463B48FFF7D1FF2E
:10492000022D55DB0B213848FFF77BFF00BF3648CF
:10493000FFF76EFF0028FAD13348FFF77EFF3349B7
:1049400008600846006810B108460068E1E72E4894
:10495000FFF769FF2070641C022D1FDD00261AE09E
:1049600009212948FFF75DFF00BF2748FFF750FFE7
:104970000028FAD12448FFF760FF24490860084660
:10498000006810B108460068C3E71F48FFF74BFFF7
:104990002070641C761CA81EB042E1DC05211A4878
:1049A000FFF73FFF00BF1848FFF732FF0028FAD19A
:1049B0001548FFF742FF154908600846006810B126
:1049C00008460068A5E71048FFF72DFF207018E0A3
:1049D00007210D48FFF725FF00BF0B48FFF718FF21
:1049E0000028FAD10848FFF728FF08490860084660
:1049F000006810B1084600688BE70348FFF713FF13
:104A00002070002085E70000000002401800002010
:104A10002DE9F04707468946154698460022394653
:104A20002648FFF74EFF49462448FFF7FFFE0321C3
:104A30002248FFF7F6FE00BF2048FFF7E9FE0028F6
:104A4000FAD11E48FFF7F9FE044614B12046BDE82E
:104A5000F087002616E029781848FFF7E7FE6D1C5E
:104A600001211648FFF7DDFE00BF1448FFF7D0FE16
:104A70000028FAD11148FFF7E0FE04460CB12046A9
:104A8000E5E7761CA8F10100B042E4DC29780B4888
:104A9000FFF7CCFE05210948FFF7C3FE00BF07481A
:104AA000FFF7B6FE0028FAD10448FFF7C6FE044619
:104AB0000CB12046CBE70020C9E70000000002400F
:104AC000F8B506460F4614461D4601236A46394688
:104AD0003046FFF7FBFE2DB10120A0409DF80010ED
:104AE000084305E00120A0409DF8001021EA0000E5
:104AF000C0B2009001236A4639463046FFF788FF6E
:104B000008B9012000E0002001490870F8BD00004C
:104B1000480400202DE9F8430746884614461D4600
:104B2000089E01236A4641463846FFF7CFFE601CC7
:104B3000FF2101FA00F0C4F108012944491EFF22B7
:104B40000A41104300F0FF09C5F1080006FA00F021
:104B5000C6B2C4F1070006419DF8000000EA090052
:104B600000909DF800003043009001236A464146C2
:104B70003846FFF74DFFBDE8F8830000F0B52DED96
:104B8000108B85B0B0EE408AF0EE60AAB0EE41DA4C
:104B9000F0EE61DAF0EE429AF0EE628AB0EE439AFD
:104BA00004460D461646F748D0ED080A60EEA00A06
:104BB00090ED091AD0ED091A41EE210AB0EE600A13
:104BC00005F0D8FFF04880ED000AEE4890ED080AA5
:104BD000B5EEC00AF1EE10FA2AD090ED090AB5EE52
:104BE000C00AF1EE10FA23D090ED080AE648D0EDA5
:104BF000000A80EE201AE54880ED001AE14890EDA9
:104C0000090AE148D0ED000A80EE201AE04880ED64
:104C1000001ADE48D0ED000ADD4890ED000A05F0EC
:104C200055F9DFEDDC0A20EE200ADB4880ED000AB2
:104C3000DA4890ED010AD0ED030A20EE200AD0ED0B
:104C4000000A90ED021A00EEC10AF0EE000A20EE12
:104C5000200AD34880ED000AD04890ED000AD0ED3C
:104C6000010A20EE200AD0ED020A90ED031A00EEB0
:104C7000810AF0EE000A20EE200AC94880ED010A00
:104C8000C64890ED010A20EE000AD0ED020A90ED30
:104C9000021A00EE810AF7EE000AB0EE001A41EEA9
:104CA000400ABF48C0ED020A69EEA90A48EEA80A08
:104CB00049EE090AB0EE600A05F05CFFB94880EDE4
:104CC000000A9FEDB90A28EE000AF2EE040A60EE2F
:104CD000200A90ED000AB54890ED001A30EE411A16
:104CE00090ED000A00EE810A80ED000AF5EEC09A10
:104CF000F1EE10FA02DDB0EE690A01E0B1EE690AE8
:104D0000DFEDAB0AB4EEE00AF1EE10FA7DD2F5EE7B
:104D1000C08AF1EE10FA02DDB0EE680A01E0B1EEF1
:104D2000680ADFEDA30AB4EEE00AF1EE10FA6CD2E5
:104D3000B5EEC09AF1EE10FA02DDB0EE490A01E0DC
:104D4000B1EE490ADFED9A0AB4EEE00AF1EE10FA8C
:104D50005BD2944890ED000AC9EE800AF0EE609AAA
:104D600090ED000AC8EE800AF0EE608A90ED000A2D
:104D7000C9EE000AB0EE609A90ED000ADFED8D0AF0
:104D8000B4EEE00AF1EE10FA74DD90ED000ADFED0A
:104D9000880AB4EEE00AF1EE10FA6BD2804890ED8A
:104DA000020A20EE280AD0ED010A09EE600A8248C4
:104DB00080ED030A7A4890ED000A20EE090AD0ED52
:104DC000020A09EEE00A7C4880ED040A744890ED7E
:104DD000010A20EE290AD0ED000A08EEE00A764822
:104DE00080ED050A9FED700A28EE000AF7EE000A32
:104DF00020EE20AA90ED030AD0ED060A70EE600ABC
:104E000090ED060A0AEE200A00E026E080ED060A90
:104E100090ED040AD0ED070A70EE600A90ED070AE3
:104E20000AEE200A80ED070A90ED050AD0ED080A87
:104E300070EE600A90ED080A0AEE200A80ED080A7A
:104E400090ED060A80ED000A90ED070A80ED010A58
:104E500090ED080A80ED020A0CE09FED580A5648D2
:104E600080ED000A9FED550A80ED010A9FED530A7F
:104E700080ED020A504890ED090AD0ED000A9FED3E
:104E8000501A60EE810AB0EE001A60EE810A00EE60
:104E9000880A80ED090A90ED0A0AD0ED010A9FED1B
:104EA000481A60EE810AB0EE001A60EE810A00EE48
:104EB000880A80ED0A0A90ED0B0AD0ED020A9FEDF8
:104EC000401A60EE810AB0EE001A60EE810A00EE30
:104ED000880A80ED0B0A90ED090ADFED3A0AB4EE7C
:104EE000E00AF1EE10FA02D29FED360A0FE03248E6
:104EF00090ED090ADFED340AB4EEE00AF1EE10FAA3
:104F000002DD9FED310A02E02B4890ED090A2A48A4
:104F100080ED090A90ED0A0ADFED2A0AB4EEE00AF4
:104F2000F1EE10FA02D29FED270A0FE0224890ED31
:104F30000A0ADFED250AB4EEE00AF1EE10FA02DD0E
:104F40009FED210A02E01C4890ED0A0A1A4880ED04
:104F50000A0A90ED0B0ADFED1B0AB4EEE00AF1EE4F
:104F600010FA02D29FED170A33E0134890ED0B0AB6
:104F7000DFED150AB4EEE00AF1EE10FA26DD9FED42
:104F8000120A26E064040020780500207C05002039
:104F90008005002033336542840500205805002039
:104FA000802B002068050020C3F5C8407005002054
:104FB0000080894500806D458C2B0020000000009A
:104FC000CDCCCC3D34FA0EBD34FA0E3DF44890ED14
:104FD0000B0AF34880ED0B0A90ED000AD0ED090AA8
:104FE00030EE200ADFEDEF0A20EE200ADFEDEE0AB8
:104FF0000AEEA00A80ED0C0A90ED010AD0ED0A0A33
:1050000030EE200ADFEDE70A20EE200ADFEDE60AA7
:105010000DEE200A80ED0D0AE448D0ED000AE448C8
:1050200090ED001A70EEC10AB0EE600A02F05AFC70
:1050300010EE107A384606F043FE41EC1B0BDD48BB
:10504000007810B19FEDDC1B01E09FEDDD1BB0EEA1
:10505000410AF0EE610A53EC102B9FEDDB1B51EC83
:10506000110B06F06DFB41EC1C0B53EC1B2B06F0F7
:1050700067FB41EC1E0B1DEE900A06F021FE41EC91
:105080001F0B53EC1E2B06F031FD9FEDD10B53ECA3
:10509000102BCDE900019DED000B51EC100B06F03B
:1050A0004FFBCDE902019DED020B51EC100B06F018
:1050B000FDF8BB498863C84890ED010AB1EE400A8B
:1050C0000846D0ED0C0A20EE200AC348D0ED020AB3
:1050D000084690ED0D1A00EEC10ABF48D0ED030A54
:1050E000084690ED0E1A00EEC10ABB48D0ED000A4A
:1050F00040EE080AC0ED000A90ED000A0846D0ED27
:105100000C0A20EE200AB448D0ED020A084690EDC1
:105110000E1A00EE810AB048D0ED030A084690ED61
:105120000D1A00EEC10AAC48D0ED010A40EE080AA3
:10513000C0ED010A90ED000A0846D0ED0D0A20EE00
:10514000200AA548D0ED010A084690ED0E1A00EE9F
:10515000C10AA148D0ED030A084690ED0C1A00EEF2
:10516000810A9D48D0ED020A40EE080AC0ED020A0D
:1051700090ED000A0846D0ED0E0A20EE200A96486F
:10518000D0ED010A084690ED0D1A00EE810A924812
:10519000D0ED020A084690ED0C1A00EEC10A8E48C6
:1051A000D0ED030A40EE080AC0ED030AD0ED000A74
:1051B00060EEA00A90ED011AD0ED011A41EE210A2D
:1051C00090ED021AD0ED021A41EE210A90ED031A79
:1051D000D0ED031A41EE210AB0EE600A05F0CAFCD8
:1051E0007E4880ED000A7C4890ED000A7B48D0EDB7
:1051F000000A80EE201A784880ED001A90ED010A2E
:105200007648D0ED000A80EE201A734880ED011A2E
:1052100090ED020A7148D0ED000A80EE201A6E4827
:1052200080ED021A90ED030A6C48D0ED000A80EE82
:10523000201A694880ED031A90ED011A21EE011A37
:10524000D0ED021A90ED022A01EE821AF7EE001A52
:10525000B0EE002A42EE411AF0EE610A90ED001A1B
:10526000D0ED011A21EE211AD0ED021A90ED032A99
:1052700001EE821AF0EE001A21EE211AB0EE410A78
:1052800004F024FE5648D0ED000A1FEDBE1A50EE81
:10529000010AC4ED000A90ED010A10EE101A08464A
:1052A00006F00EFD41EC1E0B4B4890ED010AD0EDCF
:1052B000030A20EE200AD0ED000A90ED021A00EE5B
:1052C000C10AF0EE000A20EE200A10EE101A08467D
:1052D00006F0F6FC41EC1C0BB0EE4C0AF0EE6C0A4A
:1052E00003F03EF9B0EE40BAF0EE60BA9FED3D0B30
:1052F00053EC102B51EC1B0B06F022FA41EC1F0B68
:1053000053EC1E2B06F0F2FBCDE902019DED020BE2
:1053100051EC100B05F0CAFF28602F4890ED001AE1
:1053200021EE011AD0ED011A90ED012A01EE821A48
:10533000F7EE001AB0EE002A52EE011AF0EE610A02
:1053400090ED011AD0ED021A21EE211AD0ED001ACB
:1053500090ED032A01EEC21AF0EE001A21EE211A96
:10536000B0EE410A04F0B2FD1D48D0ED020A1FED77
:10537000F71A50EE010AC6ED000AD6ED001AB0EE9B
:10538000611AD5ED001AF0EE610AD4ED001AB0EE04
:10539000610A01F025FE05B0BDEC108BF0BD0000E8
:1053A0008C2B00209A99193F34FA8E3C84050020FA
:1053B0005405002034050020333333333333D33FD7
:1053C000000000000000F83F000000403333E33FDE
:1053D0000000008046DF913F580500206C0500204A
:1053E000D42B00200000006066A64C40164904281B
:1053F00004BF086840F4803018D0052804BF08684E
:1054000040F4003012D0062812D00F2815D01028F2
:1054100038BF7047103800F01F01012202FA01F175
:1054200042090A4850F8220001607047086070473E
:10543000086840F48020086070474FF0E020016960
:1054400041F002010161704724ED00E074C20000E8
:1054500010B5FAF786FF002818BF012010BD000024
:1054600070B50546012447E02548005D132805DA9C
:105470002348005D401C2249085502E000202049D5
:1054800008551F48005D295D884219DA012C04D0B7
:10549000022C08D0032C12D10BE000224021194825
:1054A000FEF7E1FF0BE0002210211648FEF7DBFFBC
:1054B00005E0002220211348FEF7D5FF00BF19E0C8
:1054C000012C04D0022C08D0032C12D10BE0402276
:1054D00011460C48FEF7C7FF0BE0102211460948A1
:1054E000FEF7C1FF05E0202211460648FEF7BBFF8C
:1054F00000BF00BF601CC4B2042CB5DB70BD00004F
:10550000B4040020005000409348007818B10120F6
:105510009249487015E092480078012803D1022092
:105520008E4948700DE08E480078022803D1032090
:105530008A49487005E08A48007810B900208749F8
:1055400048708648407830B1012849D002287FD081
:1055500003287CD1BCE083480078C0BB8248007837
:1055600070B182480088001D00B28049088008465A
:10557000B0F90000642811DD00207B4908700DE0BF
:105580007A480088001F00B2784908800846B0F9C0
:105590000000002802DA0120734908707348B0F94E
:1055A00000000A2190FBF1F0714948706F48B0F992
:1055B00000000A2190FBF1F06D4988706B48B0F94A
:1055C00000000A2190FBF1F06949C87007E0FFE78D
:1055D000002067490870487088701420C870B8E0CF
:1055E0006148007870B1614800880C3000B25F49B2
:1055F00008800846B0F90000642811DD00205A49EF
:1056000008700DE0594800880C3800B257490880EE
:105610000846B0F90000002802DA0120524908705B
:105620000020534908705148B0F900000A2190FB4E
:10563000F1F04F494870002088704C48B0F90000E4
:105640000A2190FBF1F04A49C87082E000E07FE057
:105650004448007898BB4448007870B143480088BB
:10566000001D00B2414908800846B0F900006428D6
:1056700011DD00203C4908700DE03C480088001F07
:1056800000B23A4908800846B0F90000002802DA62
:105690000120354908700020354948703348B0F979
:1056A00000000A2190FBF1F0314988702F48B0F9D1
:1056B00000000A2190FBF1F02D49C87007E0FFE7D8
:1056C00000202B490870487013208870C87040E093
:1056D0002448007890BB2448007870B123480088A3
:1056E000001D00B2214908800846B0F90000642876
:1056F00011DD00201C4908700DE01C480088001FC7
:1057000000B21A4908800846B0F90000002802DA01
:105710000120154908701548B0F900000A2190FBD6
:10572000F1F0134948701148B0F900000A2190FBCC
:10573000F1F00F4988700020C87008E0FFE70020F2
:105740000B4908700C20487088700020C87000E079
:1057500000BF00BF7047000091040020B204002089
:105760003805002034050020BA040020B8040020C9
:10577000AE04002010B5064801F0C8FE70210548AF
:10578000FEF726FE702211460248FEF76CFE10BDA1
:10579000010800F000500040402211461048FEF77A
:1057A00062FE102211460E48FEF75DFE20221146D1
:1057B0000B48FEF758FE11E0002240210848FEF792
:1057C00052FE4FF49670FEF716FA40221146044836
:1057D000FEF749FE4FF49670FEF70DFAECE7000075
:1057E00000500040402211461748FEF73CFE1022B0
:1057F00011461548FEF737FE202211461248FEF7E3
:1058000032FE20E0002240210F48FEF72CFE9620B9
:10581000FEF7F1F9402211460B48FEF724FE9620D0
:10582000FEF7E9F9002240210748FEF71CFE96200A
:10583000FEF7E1F9402211460348FEF714FE4FF44B
:105840001670FEF7D8F9DDE7005000401548C08912
:10585000401C1449C88108468088401C00B28880DA
:105860000846C088401C00B2C88008460089401C19
:1058700000B2088108464089401C00B248810846B1
:105880008089401C00B2888108460078012804D134
:1058900008464078401C487002E001200149087029
:1058A00070470000482E002033484078002862D01E
:1058B00032480088401C31490880314800692E492F
:1058C000B1F90A1008442E4908610846C1682A48FF
:1058D000B0F90C0008442A49C860084641692648C6
:1058E000B0F90E00084426494861084680692249FB
:1058F000B1F9741008442249886120480088322890
:1059000039DB084690ED040AB8EEC00ADFED1D0A47
:1059100080EE201A184880ED101A084690ED030A10
:10592000B8EEC00ADFED170A80EE201A124880EDAB
:10593000111A084690ED050AB8EEC00ADFED110A0B
:1059400080EE201A0C4880ED121A08468069322138
:1059500090FBF1F000EE100AB8EEC00A064880EDA8
:105960001A0A0020054908800349487004498861E3
:105970004861C86008617047B40700204C040020EB
:10598000440800200000484210B52DED028B8AB07B
:10599000B0EE408A1C2103A8FAF77BFD00F0A6FABE
:1059A000FFF782FFFE484078FD49097840EA012070
:1059B00000B2FC498880FA48C078F949897840EA01
:1059C000012001B2F748C180F5484079F4490979CE
:1059D00040EA012001B2F3480181F148407AF049E0
:1059E000097A40EA012000B2EE494881EC48C07AC9
:1059F000EB49897A40EA012001B2EA488181E8480E
:105A0000407BE749097B40EA012001B2E548C181BA
:105A1000B0F90A0000EE100AB8EEC00A8DED000AD7
:105A2000E048B0F90C0000EE100AB8EEC00A8DEDA7
:105A3000010ADC48B0F90E0000EE100AB8EEC00A08
:105A40008DED020AD648C079D549897940EA01200E
:105A500000B2D449A1F874000846B0F9740000EE11
:105A6000100AB8EEC00A0846D0ED1E0A70EE600AB1
:105A700090ED1E0A9FEDCC1A28EE011A01EE200AC5
:105A800080ED1E0A90ED1E0ADFEDC80A80EE201A96
:105A90009FEDC70A31EE000A80ED1F0AC548007865
:105AA000401CC0B2C34908700A2805DD00200870F8
:105AB0000120C14908700AE0BE4800780A2801D1D7
:105AC000002002E0BB480078401CBB490870BB487E
:105AD000006B68BBB348B0F9040000EE100AB8EEE2
